:020000040800F2
:1000000000500020890A00087D09000885090008C1
:100010008D090008950900089D09000800000000EE
:10002000000000000000000000000000A50900081A
:10003000B109000800000000BD090008C909000856
:10004000D10A0008D10A0008D10A0008D10A000824
:10005000D10A0008D10A0008D10A0008D10A000814
:10006000D10A0008D10A0008D10A0008D10A000804
:10007000D10A0008D10A0008D10A0008D10A0008F4
:10008000D10A0008D10A0008D5090008D10A0008E1
:10009000D10A0008D10A0008D10A0008D10A0008D4
:1000A000D10A0008E9090008D10A0008FD09000882
:1000B000D10A0008D10A0008D10A0008D10A0008B4
:1000C000D10A0008D10A0008D10A0008D10A0008A4
:1000D000D10A0008D10A0008D10A0008D10A000894
:1000E000D10A0008D10A0008D10A00080000000067
:1000F0000000000000000000000000000000000000
:0C01000000000000000000005FF808F1A3
:10010C0010B5054C237833B9044B13B10448AFF345
:10011C0000800123237010BD5C0000200000000053
:10012C00F840000808B5034B1BB103490348AFF373
:10013C00008008BD0000000060000020F8400008AE
:10014C00034613F8012B002AFBD1181A013870470B
:10015C0080B500AF00F0B8FC00F010F800F068F9C2
:10016C0000F05CF800F098F800F038F9024800F064
:10017C00E5FD00BFFDE700BF7800002080B594B01E
:10018C0000AF07F1280328220021184603F020FBBA
:10019C0007F1140300221A605A609A60DA601A613F
:1001AC003B1D00221A605A609A60DA600223BB621F
:1001BC000123BB631023FB6300237B6407F128033B
:1001CC00184601F08BFB0346002B01D000F0A6FA79
:1001DC000F237B610023BB610023FB6100233B6287
:1001EC0000237B6207F114030021184601F0F8FD8F
:1001FC000346002B01D000F091FA02237B60002310
:10020C00FB603B1D184601F079FF0346002B01D023
:10021C0000F084FA00BF5037BD4680BD80B584B075
:10022C0000AF3B1D00221A605A609A60184B194AA5
:10023C001A60174B00229A60154B00221A73144B4C
:10024C0000221A75124B4FF46022DA61104B002217
:10025C005A600F4B01221A610D4800F097FC0346BF
:10026C00002B01D000F05AFA05237B600123BB6000
:10027C000723FB603B1D1946054800F0E9FE0346C9
:10028C00002B01D000F04AFA00BF1037BD4680BDEC
:10029C00780000200024014080B596B000AF07F133
:1002AC00480300221A605A609A60DA6007F1400332
:1002BC0000221A605A6007F1240300221A605A6067
:1002CC009A60DA601A615A619A613B1D2022002102
:1002DC00184603F07DFA3F4B3F4A1A603D4B07220C
:1002EC005A603C4B00229A603A4B40F2E732DA609B
:1002FC00384B00221A61374B00225A61354B0022D1
:10030C009A61344801F0B0FF0346002B01D000F095
:10031C0005FA4FF48053BB6407F1480319462D4886
:10032C0002F09EFB0346002B01D000F0F7F92948A0
:10033C0001F0E9FF0346002B01D000F0EFF9002398
:10034C003B6400237B6407F140031946214802F00B
:10035C0023FF0346002B01D000F0E0F960237B6201
:10036C0040F2F313BB620023FB6200233B630023C8
:10037C007B630023BB630023FB6307F12403002290
:10038C001946144802F0AAFA0346002B01D000F0DB
:10039C00C5F900237B600023BB600023FB600023B6
:1003AC003B6100237B614FF40053BB6100233B6234
:1003BC003B1D1946074802F04DFF0346002B01D0A8
:1003CC0000F0ACF9034800F053FA00BF5837BD46B3
:1003DC0080BD00BFA8000020002C014080B500AFFC
:1003EC00114B124A1A60104B4FF416525A600E4BB6
:1003FC0000229A600C4B0022DA600B4B00221A612F
:10040C00094B0C225A61084B00229A61064B0022C0
:10041C00DA61054802F081FF0346002B01D000F0A1
:10042C007DF900BF80BD00BFF00000200038014006
:10043C0080B586B000AF07F1080300221A605A603D
:10044C009A60DA60174B9B69164A43F0200393615C
:10045C00144B9B6903F020037B607B68114B9B69F9
:10046C00104A43F0040393610E4B9B6903F00403A1
:10047C003B603B68002206210B4801F017FA06236B
:10048C00BB600123FB6000233B6102237B6107F10E
:10049C0008031946044801F085F800BF1837BD461B
:1004AC0080BD00BF001002400008014080B582B042
:1004BC0000AF78607868FFF743FE03469AB24FF4BA
:1004CC00FA737968034802F078FF00BF0837BD461D
:1004DC0080BD00BFF000002080B59EB000AF7860FA
:1004EC007B681B684D4A934240F094804C4800F066
:1004FC00DBFC03464B4A13604A4B1B684A4A1360A9
:10050C00494B1B6807F10800484A322103F02AF9CD
:10051C0078677B6F9AB207F108014FF47A734448FD
:10052C0002F04BFF434B1B88002B26D14248FFF7B0
:10053C00BDFF3C4B1B68C82202FB03F39B083F4AE0
:10054C00A2FB0323DB099AB23D4B1A803C4B1B8860
:10055C0007F13C003B4A322103F004F938673B6F4A
:10056C009AB207F13C014FF47A73314802F025FF3F
:10057C000021354801F020FF0FE03448FFF796FFCB
:10058C00284B1B68C82202FB03F39B082B4AA2FBD7
:10059C000323DB099AB22E4B1A80264B1A882C4B5C
:1005AC001B889A4214D92B48FFF780FF214B1A88DD
:1005BC00274B1B88D31A9AB2214B1A800022042194
:1005CC00254801F073F900211F4801F0F5FE1DE0EC
:1005DC00184B1A881E4B1B889A4214D21F48FFF7DF
:1005EC0065FF1B4B1A88134B1B88D31A9AB2144BFA
:1005FC001A8001220421184801F058F900211248F0
:10060C0001F0DAFE02E0064800F098FB054B1B688F
:10061C00054A136000BF7837BD4680BD00240140F9
:10062C0078000020380100203C0100201041000817
:10063C00F00000204401002024410008B1C87920BA
:10064C004001002028410008A8000020404100087B
:10065C0046010020504100080008014058410008A4
:10066C0080B590B000AF78607B681B68204A9342DD
:10067C003AD1204B1B8801339AB21E4B1A801D4B6A
:10068C001A881D4B1B889A422ED31C48FFF70EFF6D
:10069C001B4B1B88002B16D1174B1A88184B1A8032
:1006AC00174B1B8807F10800164A322103F05AF841
:1006BC00F863FB6B9AB207F108014FF47A73124896
:1006CC0002F07BFE03E0114B1A880D4B1A80094B8C
:1006DC0000221A8000210E4801F05EFF0D48FFF742
:1006EC00E5FE0D4800F02AFB00BF4037BD4680BD3B
:1006FC00002C014042010020400100206441000810
:10070C004401002078410008F00000204601002040
:10071C00A8000020904100087800002080B400AFB1
:10072C0072B600BF00BFFDE780B485B000AF154BBB
:10073C009B69144A43F001039361124B9B6903F0CC
:10074C000103BB60BB680F4BDB690E4A43F080535F
:10075C00D3610C4BDB6903F080537B607B680A4BE5
:10076C005B68FB60FB6823F0E063FB60FB6843F0B5
:10077C000073FB60044AFB68536000BF1437BD462E
:10078C0080BC7047001002400000014080B588B06A
:10079C0000AF786007F1100300221A605A609A606B
:1007AC00DA607B681B68184A934229D1174B9B6906
:1007BC00164A43F400739361144B9B6903F4007362
:1007CC00FB60FB68114B9B69104A43F00403936177
:1007DC000E4B9B6903F00403BB60BB6820233B6199
:1007EC0003237B6107F110031946094800F0DAFE78
:1007FC0000220121122000F09EFE122000F0B7FE14
:10080C0000BF2037BD4680BD0024014000100240CF
:10081C000008014080B584B000AF78607B681B682D
:10082C00114A93421BD1114B9B69104A43F400634C
:10083C0093610E4B9B6903F40063FB60FB68002221
:10084C000021192000F077FE192000F090FE002204
:10085C0000211B2000F06FFE1B2000F088FE00BF63
:10086C001037BD4680BD00BF002C01400010024077
:10087C0080B588B000AF786007F1100300221A60D1
:10088C005A609A60DA607B681B68104A934218D1F0
:10089C000F4B9B690E4A43F0040393610C4B9B690D
:1008AC0003F00403FB60FB684FF480733B6102238D
:1008BC007B610223FB6107F110031946054800F028
:1008CC0071FE00BF2037BD4680BD00BF002C01402B
:1008DC00001002400008014080B588B000AF78607D
:1008EC0007F1100300221A605A609A60DA607B6884
:1008FC001B681C4A934231D11B4B9B691A4A43F427
:10090C0080439361184B9B6903F48043FB60FB6845
:10091C00154B9B69144A43F004039361124B9B697A
:10092C0003F00403BB60BB684FF400733B6102230C
:10093C007B610323FB6107F1100319460B4800F0A0
:10094C0031FE4FF480633B6100237B610023BB616C
:10095C0007F110031946054800F024FE00BF2037AC
:10096C00BD4680BD00380140001002400008014027
:10097C0080B400AF00BFFDE780B400AF00BFFDE75F
:10098C0080B400AF00BFFDE780B400AF00BFFDE74F
:10099C0080B400AF00BFFDE780B400AF00BFBD4620
:1009AC0080BC704780B400AF00BFBD4680BC7047B0
:1009BC0080B400AF00BFBD4680BC704780B500AFAF
:1009CC0000F0C8F800BF80BD80B500AF024800F051
:1009DC0077FA00BF80BD00BF7800002080B500AF63
:1009EC00024801F08BFE00BF80BD00BFA8000020B4
:1009FC0080B500AF024801F081FE00BF80BD00BF92
:100A0C00A800002080B586B000AF7860144A154B62
:100A1C00D31A7B617B693B61134B1B68002B02D1A2
:100A2C00114B124A1A60104B1A687B6813443A69CE
:100A3C009A4207D202F0D4FE03460C221A604FF001
:100A4C00FF3309E0084B1B68FB60074B1A687B6897
:100A5C001344054A1360FB6818461837BD4680BD21
:100A6C0000500020000400004801002098020020E3
:100A7C0080B400AF00BFBD4680BC7047FFF7F8FFE5
:100A8C000B480C490C4A002302E0D458C4500433E0
:100A9C00C4188C42F9D3094A094C002301E01360B5
:100AAC000432A242FBD302F0A1FEFFF751FB7047C8
:100ABC00000000205C000020104200085C000020B8
:100ACC0098020020FEE7000080B500AF084B1B68C1
:100ADC00074A43F010031360032000F021FD0F20A0
:100AEC0000F008F8FFF720FE0023184680BD00BF79
:100AFC000020024080B582B000AF7860124B1A68BB
:100B0C00124B1B7819464FF47A73B3FBF1F3B2FB1B
:100B1C00F3F3184600F039FD0346002B01D00123F6
:100B2C000EE07B680F2B0AD8002279684FF0FF305B
:100B3C0000F001FD064A7B681360002300E00123EE
:100B4C0018460837BD4680BD000000200800002074
:100B5C000400002080B400AF054B1B781A46054BEF
:100B6C001B681344034A136000BFBD4680BC70472A
:100B7C00080000204C01002080B400AF024B1B6821
:100B8C001846BD4680BC70474C01002080B586B02D
:100B9C0000AF78600023FB7500233B610023BB6032
:100BAC000023FB607B68002B01D10123BEE07B6836
:100BBC009B68002B7B689B6A002B09D17B68002209
:100BCC00DA627B68002283F824207868FFF7DEFD68
:100BDC00786800F08FFB0346FB757B689B6A03F01B
:100BEC001003002B40F09980FB7D002B40F095808A
:100BFC007B689B6A23F4885323F0020343F00202C0
:100C0C007B689A627B685A687B68DB691A437B68ED
:100C1C001B7B5B001343BA681343BB607B689B6808
:100C2C00B3F5807F03D07B689B68012B02D14FF416
:100C3C00807300E000233A6913433B617B681B7DA2
:100C4C00012B19D17B681B7B002B09D17B689B691D
:100C5C00013B5A033B69134343F400633B610BE0D4
:100C6C007B689B6A43F020027B689A627B68DB6A34
:100C7C0043F001027B68DA627B681B685B6823F4D3
:100C8C0069417B681B683A690A435A607B681B6838
:100C9C009A68284B13407A681268B9680B439360C2
:100CAC007B689B68B3F5807F03D07B689B68012BC6
:100CBC0004D17B681B69013B1B05FB607B681B68CF
:100CCC00DB6A23F470017B681B68FA680A43DA62FA
:100CDC007B681B689A68184B1340BA689A420BD110
:100CEC007B680022DA627B689B6A23F0030343F083
:100CFC0001027B689A6218E07B689B6A23F01203FE
:100D0C0043F010027B689A627B68DB6A43F0010255
:100D1C007B68DA620123FB7507E07B689B6A43F012
:100D2C0010027B689A620123FB75FB7D184618370D
:100D3C00BD4680BDFDF7E1FFFE0E1FFF80B584B000
:100D4C0000AF78600023FB737B6893F82430012B91
:100D5C0001D10223A0E07B68012283F8242078686B
:100D6C0000F06EFA0346FB73FB7B002B40F08F8088
:100D7C007B689B6A23F4706323F0010343F4807255
:100D8C007B689A627B681B68454A934205D1454B48
:100D9C005B6803F47023002B15D17B689B6A23F4EA
:100DAC0080127B689A627B681B685B6803F48063C3
:100DBC00002B26D07B689B6A23F4405343F480526B
:100DCC007B689A621DE07B689B6A43F480127B68A7
:100DDC009A627B681B68334A934204D07B681B6819
:100DEC002F4A93420DD12F4B5B6803F48063002B89
:100DFC0007D07B689B6A23F4405343F480527B6892
:100E0C009A627B689B6A03F48053002B06D07B6844
:100E1C00DB6A23F006027B68DA6202E07B68002260
:100E2C00DA627B68002283F824207B681B686FF0F1
:100E3C0002021A607B681B685A687B681B6842F068
:100E4C0020025A607B681B689B6803F46023B3F52F
:100E5C00602F13D17B681B68114A934205D1114B4B
:100E6C005B6803F47023002B08D17B681B689A68BD
:100E7C007B681B6842F4A0029A600CE07B681B68DC
:100E8C009A687B681B6842F480129A6003E07B6866
:100E9C00002283F82420FB7B18461037BD4680BD0A
:100EAC00002801400024014080B483B000AF78607A
:100EBC007B681B68DB6C18460C37BD4680BC7047E2
:100ECC0080B584B000AF78607B681B681B68FB60E2
:100EDC007B681B685B68BB60BB6803F02003002B5E
:100EEC003ED0FB6803F00203002B39D07B689B6A71
:100EFC0003F01003002B05D17B689B6A43F400724E
:100F0C007B689A627B681B689B6803F46023B3F56B
:100F1C00602F1DD17B681B7B002B19D17B681B6854
:100F2C005A687B681B6822F020025A607B689B6AB7
:100F3C0023F480727B689A627B689B6A03F480530B
:100F4C00002B05D17B689B6A43F001027B689A6297
:100F5C007868FFF7C1FA7B681B686FF012021A60A1
:100F6C00BB6803F08003002B4DD0FB6803F0040337
:100F7C00002B48D07B689B6A03F01003002B05D133
:100F8C007B689B6A43F400527B689A627B681B689F
:100F9C009B6803F4E043B3F5E04F12D07B681B6809
:100FAC005B6803F48063002B25D17B681B689B680E
:100FBC0003F46023B3F5602F1DD17B681B7B002BE2
:100FCC0019D17B681B685A687B681B6822F0800209
:100FDC005A607B689B6A23F480527B689A627B68B8
:100FEC009B6A03F48073002B05D17B689B6A43F0EA
:100FFC0001027B689A62786800F0BDF97B681B6817
:10100C006FF00C021A60BB6803F04003002B12D087
:10101C00FB6803F00103002B0DD07B689B6A43F443
:10102C0080327B689A62786800F009F87B681B68EC
:10103C006FF001021A6000BF1037BD4680BD80B44E
:10104C0083B000AF786000BF0C37BD4680BC7047E2
:10105C0080B485B000AF786039600023FB73002347
:10106C00BB607B6893F82430012B01D10223DCE0B8
:10107C007B68012283F824203B685B68062B1CD814
:10108C007B681B68596B3B685A6813469B0013447A
:10109C00053B1F2202FA03F3DB4319403B68186837
:1010AC003B685A6813469B001344053B00FA03F255
:1010BC007B681B680A435A633CE03B685B680C2BFB
:1010CC001CD87B681B68196B3B685A6813469B00DD
:1010DC001344233B1F2202FA03F3DB4319403B6802
:1010EC0018683B685A6813469B001344233B00FA6C
:1010FC0003F27B681B680A431A631BE07B681B685E
:10110C00D96A3B685A6813469B001344413B1F2223
:10111C0002FA03F3DB4319403B6818683B685A68D2
:10112C0013469B001344413B00FA03F27B681B6897
:10113C000A43DA623B681B68092B1CD97B681B6865
:10114C00D9683B681A6813465B0013441E3B0722A0
:10115C0002FA03F3DB4319403B6898683B681A6852
:10116C0013465B0013441E3B00FA03F27B681B68BA
:10117C000A43DA6019E07B681B6819693B681A68D6
:10118C0013465B001344072202FA03F3DB431940B6
:10119C003B6898683B681A6813465B00134400FA76
:1011AC0003F27B681B680A431A613B681B68102BAF
:1011BC0003D03B681B68112B32D17B681B681D4A1E
:1011CC00934225D17B681B689B6803F40003002BBA
:1011DC0026D17B681B689A687B681B6842F4000206
:1011EC009A603B681B68102B1AD1134B1B68134A6F
:1011FC00A2FB03239A0C13469B0013445B00BB60B9
:10120C0002E0BB68013BBB60BB68002BF9D107E077
:10121C007B689B6A43F020027B689A620123FB7314
:10122C007B68002283F82420FB7B18461437BD46CC
:10123C0080BC7047002401400000002083DE1B436B
:10124C0080B584B000AF78600023FB600023BB60E6
:10125C007B681B689B6803F00103012B40D07B6803
:10126C001B689A687B681B6842F001029A601F4BEE
:10127C001B681F4AA2FB03239B0CBB6002E0BB68EC
:10128C00013BBB60BB68002BF9D1FFF775FCF86024
:10129C001FE0FFF771FC0246FB68D31A022B18D92A
:1012AC007B681B689B6803F00103012B11D07B68E2
:1012BC009B6A43F010027B689A627B68DB6A43F09E
:1012CC0001027B68DA627B68002283F82420012308
:1012DC0007E07B681B689B6803F00103012BD8D1E6
:1012EC00002318461037BD4680BD00BF000000200B
:1012FC0083DE1B4380B584B000AF78600023FB60B5
:10130C007B681B689B6803F00103012B2ED17B6863
:10131C001B689A687B681B6822F001029A60FFF7D1
:10132C002BFCF8601BE0FFF727FC0246FB68D31A86
:10133C00022B14D97B681B689B6803F00103012BFB
:10134C000DD17B689B6A43F010027B689A627B68C4
:10135C00DB6A43F001027B68DA62012307E07B68F9
:10136C001B689B6803F00103012BDCD0002318469B
:10137C001037BD4680BD80B483B000AF786000BF2D
:10138C000C37BD4680BC704780B485B000AF786028
:10139C007B6803F00703FB600C4BDB68BB60BA682F
:1013AC004FF6FF031340BB60FB681A02BB68134384
:1013BC0043F0BF6343F40033BB60044ABB68D360A3
:1013CC0000BF1437BD4680BC704700BF00ED00E085
:1013DC0080B400AF044BDB681B0A03F0070318460C
:1013EC00BD4680BC704700BF00ED00E080B483B008
:1013FC0000AF0346FB7197F90730002B0BDBFB7931
:10140C0003F01F02064997F907305B09012000FA27
:10141C0002F241F8232000BF0C37BD4680BC704758
:10142C0000E100E080B483B000AF03463960FB718B
:10143C0097F90730002B0ADB3B68DAB20C4997F9B5
:10144C0007301201D2B20B4483F800230AE03B6848
:10145C00DAB20849FB7903F00F03043B1201D2B254
:10146C000B441A7600BF0C37BD4680BC704700BFDA
:10147C0000E100E000ED00E080B489B000AFF8605E
:10148C00B9607A60FB6803F00703FB61FB69C3F189
:10149C000703042B28BF0423BB61FB690433062B11
:1014AC0002D9FB69033B00E000237B614FF0FF3264
:1014BC00BB6902FA03F3DA43BB681A407B699A40B2
:1014CC004FF0FF317B6901FA03F3D9437B680B4082
:1014DC00134318462437BD4680BC704780B582B094
:1014EC0000AF78607B68013BB3F1807F01D30123AF
:1014FC000FE00A4A7B68013B53600F214FF0FF302D
:10150C00FFF790FF054B00229A60044B07221A60EC
:10151C00002318460837BD4680BD00BF10E000E030
:10152C0080B582B000AF78607868FFF72DFF00BF00
:10153C000837BD4680BD80B586B000AF0346B960A4
:10154C007A60FB7300237B61FFF742FF78617A6856
:10155C00B9687869FFF790FF024697F90F3011468A
:10156C001846FFF75FFF00BF1837BD4680BD80B53A
:10157C0082B000AF0346FB7197F907301846FFF7AE
:10158C0035FF00BF0837BD4680BD80B582B000AFC7
:10159C0078607868FFF7A2FF034618460837BD4607
:1015AC0080BD000080B48BB000AF78603960002340
:1015BC007B6200233B6269E101227B6A02FA03F33E
:1015CC00FB613B681B68FA691340BB61BA69FB6934
:1015DC009A4240F058813B685B689A4A93425ED0CD
:1015EC00984A934275D8984A934258D0964A934257
:1015FC006FD8964A934252D0944A934269D8944AEF
:10160C0093424CD0924A934263D8924A934246D02A
:10161C00904A93425DD8122B2AD8122B59D801A28A
:10162C0052F823F0AB160008851600089716000830
:10163C00D9160008DF160008DF160008DF160008B0
:10164C00DF160008DF160008DF160008DF1600089A
:10165C00DF160008DF160008DF160008DF1600088A
:10166C00DF160008DF1600088D160008A11600080A
:10167C00794A934213D02CE03B68DB683B6229E04B
:10168C003B68DB6804333B6224E03B68DB6808336F
:10169C003B621FE03B68DB680C333B621AE03B6843
:1016AC009B68002B02D104233B6213E03B689B68D0
:1016BC00012B05D108233B627B68FA691A6109E0AA
:1016CC0008233B627B68FA695A6103E000233B62A2
:1016DC0000E000BFBB69FF2B01D87B6801E07B6891
:1016EC0004337B61BB69FF2B02D87B6A9B0002E051
:1016FC007B6A083B9B003B617B691A680F213B6945
:10170C0001FA03F3DB431A40396A3B6901FA03F32C
:10171C001A437B691A603B685B6803F08053002BAB
:10172C0000F0B1804D4B9B694C4A43F0010393612F
:10173C004A4B9B6903F00103BB60BB68484A7B6A58
:10174C009B08023352F82330FB607B6A03F00303DF
:10175C009B000F2202FA03F3DB43FA681340FB6091
:10176C007B68404A934213D07B683F4A93420DD02A
:10177C007B683E4A934207D07B683D4A934201D135
:10178C00032306E0042304E0022302E0012300E02B
:10179C0000237A6A02F0030292009340FA68134322
:1017AC00FB602F497B6A9B080233FA6841F82320BF
:1017BC003B685B6803F48013002B06D02D4B9A68B2
:1017CC002C49BB6913438B6006E02A4B9A68BB69B2
:1017DC00DB43284913408B603B685B6803F40013C0
:1017EC00002B06D0234BDA682249BB691343CB602C
:1017FC0006E0204BDA68BB69DB431E491340CB6023
:10180C003B685B6803F40033002B06D0194B5A6815
:10181C001849BB6913434B6006E0164B5A68BB6909
:10182C00DB43144913404B603B685B6803F4803323
:10183C00002B21D00F4B1A680E49BB6913430B6068
:10184C0021E000BF00003210000031100000221017
:10185C0000002110000012100000111000100240B6
:10186C000000014000080140000C01400010014044
:10187C0000140140000401400B4B1A68BB69DB43A8
:10188C00094913400B607B6A01337B623B681A6821
:10189C007B6A22FA03F3002B7FF48EAE00BF00BFED
:1018AC002C37BD4680BC70470004014080B483B027
:1018BC0000AF78600B467B8013467B707B78002BE7
:1018CC0003D07A887B681A6103E07B881A047B68F2
:1018DC001A6100BF0C37BD4680BC704780B586B01E
:1018EC0000AF78607B68002B01D1012372E27B682A
:1018FC001B6803F00103002B00F08780924B5B68A0
:10190C0003F00C03042B0CD08F4B5B6803F00C031F
:10191C00082B12D18C4B5B6803F48033B3F5803FFA
:10192C000BD1894B1B6803F40033002B6CD07B6804
:10193C005B68002B68D101234CE27B685B68B3F5D4
:10194C00803F06D1804B1B687F4A43F48033136081
:10195C002EE07B685B68002B0CD17B4B1B687A4AB2
:10196C0023F480331360784B1B68774A23F480236D
:10197C0013601DE07B685B68B3F5A02F0CD1724B34
:10198C001B68714A43F4802313606F4B1B686E4ACB
:10199C0043F4803313600BE06B4B1B686A4A23F4EF
:1019AC0080331360684B1B68674A23F480231360F1
:1019BC007B685B68002B13D0FFF7DEF8386108E01A
:1019CC00FFF7DAF802463B69D31A642B01D90323DB
:1019DC0000E25D4B1B6803F40033002BF0D014E0E5
:1019EC00FFF7CAF8386108E0FFF7C6F802463B6912
:1019FC00D31A642B01D90323ECE1534B1B6803F47A
:101A0C000033002BF0D100E000BF7B681B6803F0B3
:101A1C000203002B63D04C4B5B6803F00C03002BD0
:101A2C000BD0494B5B6803F00C03082B1CD1464BC5
:101A3C005B6803F48033002B16D1434B1B6803F017
:101A4C000203002B05D07B681B69012B01D00123FD
:101A5C00C0E13D4B1B6823F0F8027B685B69DB003F
:101A6C00394913430B603AE07B681B69002B20D08B
:101A7C00364B01221A60FFF77FF8386108E0FFF758
:101A8C007BF802463B69D31A022B01D90323A1E14F
:101A9C002D4B1B6803F00203002BF0D02A4B1B6864
:101AAC0023F0F8027B685B69DB00274913430B606A
:101ABC0015E0264B00221A60FFF75EF8386108E04B
:101ACC00FFF75AF802463B69D31A022B01D90323BC
:101ADC0080E11D4B1B6803F00203002BF0D17B68E7
:101AEC001B6803F00803002B3AD07B689B69002B22
:101AFC0019D0174B01221A60FFF73EF8386108E045
:101B0C00FFF73AF802463B69D31A022B01D903239B
:101B1C0060E10D4B5B6A03F00203002BF0D0012057
:101B2C0000F0CEFA1CE00A4B00221A60FFF724F8F2
:101B3C0038610FE0FFF720F802463B69D31A022BFD
:101B4C0008D9032346E100BF0010024000004242C6
:101B5C0080044242924B5B6A03F00203002BE9D1F2
:101B6C007B681B6803F00403002B00F0A6800023A5
:101B7C00FB758B4BDB6903F08053002B0DD1884B2D
:101B8C00DB69874A43F08053D361854BDB6903F0F3
:101B9C008053BB60BB680123FB75824B1B6803F44D
:101BAC008073002B18D17F4B1B687E4A43F48073E3
:101BBC001360FEF7E1FF386108E0FEF7DDFF024637
:101BCC003B69D31A642B01D9032303E1754B1B68C2
:101BDC0003F48073002BF0D07B68DB68012B06D1FB
:101BEC006F4B1B6A6E4A43F0010313622DE07B6856
:101BFC00DB68002B0CD16A4B1B6A694A23F001038A
:101C0C001362674B1B6A664A23F0040313621CE0E1
:101C1C007B68DB68052B0CD1614B1B6A604A43F077
:101C2C00040313625E4B1B6A5D4A43F001031362AB
:101C3C000BE05B4B1B6A5A4A23F001031362584BAF
:101C4C001B6A574A23F0040313627B68DB68002B82
:101C5C0015D0FEF791FF38610AE0FEF78DFF0246C2
:101C6C003B69D31A41F28832934201D90323B1E084
:101C7C004B4B1B6A03F00203002BEED014E0FEF773
:101C8C007BFF38610AE0FEF777FF02463B69D31A07
:101C9C0041F28832934201D903239BE0404B1B6AEB
:101CAC0003F00203002BEED1FB7D012B05D13C4B45
:101CBC00DB693B4A23F08053D3617B68DB69002BE3
:101CCC0000F08780364B5B6803F00C03082B61D067
:101CDC007B68DB69022B46D1334B00221A60FEF77E
:101CEC004BFF386108E0FEF747FF02463B69D31A09
:101CFC00022B01D903236DE0294B1B6803F0007301
:101D0C00002BF0D17B681B6AB3F5803F08D1244BC4
:101D1C005B6823F400327B689B68214913434B605A
:101D2C001F4B5B6823F474127B68196A7B685B6ACF
:101D3C000B431B4913434B601B4B01221A60FEF7EC
:101D4C001BFF386108E0FEF717FF02463B69D31A08
:101D5C00022B01D903233DE0114B1B6803F00073E8
:101D6C00002BF0D035E0104B00221A60FEF704FF78
:101D7C00386108E0FEF700FF02463B69D31A022BDC
:101D8C0001D9032326E0064B1B6803F00073002BDC
:101D9C00F0D11EE07B68DB69012B07D1012319E030
:101DAC000010024000700040600042420B4B5B6828
:101DBC00FB60FB6803F480327B681B6A9A4206D195
:101DCC00FB6803F470127B685B6A9A4201D00123B2
:101DDC0000E0002318461837BD4680BD00100240B5
:101DEC0080B584B000AF786039607B68002B01D17E
:101DFC000123D0E06A4B1B6803F007033A689A4250
:101E0C0010D9674B1B6823F0070265493B681343E5
:101E1C000B60634B1B6803F007033A689A4201D0CE
:101E2C000123B8E07B681B6803F00203002B20D071
:101E3C007B681B6803F00403002B05D0594B5B68CF
:101E4C00584A43F4E06353607B681B6803F0080353
:101E5C00002B05D0534B5B68524A43F460535360DC
:101E6C00504B5B6823F0F0027B689B684D49134331
:101E7C004B607B681B6803F00103002B40D07B6830
:101E8C005B68012B07D1474B1B6803F40033002B15
:101E9C0015D101237FE07B685B68022B07D1414B96
:101EAC001B6803F00073002B09D1012373E03D4B39
:101EBC001B6803F00203002B01D101236BE0394BAB
:101ECC005B6823F003027B685B68364913434B6005
:101EDC00FEF752FEF8600AE0FEF74EFE0246FB6883
:101EEC00D31A41F28832934201D9032353E02D4B8C
:101EFC005B6803F00C027B685B689B009A42EBD139
:101F0C00274B1B6803F007033A689A4210D2244B04
:101F1C001B6823F0070222493B6813430B60204BDC
:101F2C001B6803F007033A689A4201D0012332E0A0
:101F3C007B681B6803F00403002B08D0194B5B680B
:101F4C0023F4E0627B68DB68164913434B607B68C3
:101F5C001B6803F00803002B09D0124B5B6823F4B9
:101F6C0060527B681B69DB000E4913434B6000F029
:101F7C0021F802460B4B5B681B0903F00F030A495F
:101F8C00CB5C22FA03F3094A1360094B1B68184611
:101F9C00FEF7B0FD002318461037BD4680BD00BFCC
:101FAC000020024000100240A04100080000002068
:101FBC000400002080B487B000AF0023FB60002336
:101FCC00BB6000237B6100237B6000233B611E4BC5
:101FDC005B68FB60FB6803F00C03042B02D0082B3E
:101FEC0003D027E0194B3B6127E0FB689B0C03F007
:101FFC000F03174AD35C7B60FB6803F48033002B20
:10200C0010D0114B5B685B0C03F00103114AD35CDD
:10201C00BB607B680D4A03FB02F2BB68B2FBF3F3B7
:10202C007B6104E07B680C4A02FB03F37B617B69F8
:10203C003B6102E0054B3B6100BF3B6918461C3716
:10204C00BD4680BC704700BF0010024000127A00F1
:10205C00B8410008C841000800093D0080B400AF39
:10206C00024B1B681846BD4680BC70470000002020
:10207C0080B500AFFFF7F2FF0246054B5B681B0A09
:10208C0003F007030349CB5C22FA03F3184680BD27
:10209C0000100240B041000880B500AFFFF7DEFF32
:1020AC000246054B5B68DB0A03F007030349CB5C74
:1020BC0022FA03F3184680BD00100240B04100081C
:1020CC0080B485B000AF78600A4B1B680A4AA2FB4B
:1020DC0003235B0A7A6802FB03F3FB6000BFFB6817
:1020EC005A1EFA60002BF9D100BF00BF1437BD4651
:1020FC0080BC704700000020D34D621080B586B0C4
:10210C0000AF786000233B610023FB607B681B6899
:10211C0003F00103002B7DD00023FB754F4BDB69D3
:10212C0003F08053002B0DD14C4BDB694B4A43F031
:10213C008053D361494BDB6903F08053BB60BB68B0
:10214C000123FB75464B1B6803F48073002B18D1DD
:10215C00434B1B68424A43F480731360FEF70CFD3B
:10216C00386108E0FEF708FD02463B69D31A642B80
:10217C0001D903236DE03A4B1B6803F48073002BE9
:10218C00F0D0364B1B6A03F44073FB60FB68002BEA
:10219C002ED07B685B6803F44073FA689A4227D0B0
:1021AC002E4B1B6A23F44073FB602E4B01221A60EA
:1021BC002C4B00221A60294AFB681362FB6803F05F
:1021CC000103002B14D0FEF7D7FC38610AE0FEF7B0
:1021DC00D3FC02463B69D31A41F28832934201D9AF
:1021EC00032336E01D4B1B6A03F00203002BEED0D9
:1021FC001A4B1B6A23F440727B685B6817491343C4
:10220C000B62FB7D012B05D1144BDB69134A23F0C8
:10221C008053D3617B681B6803F00203002B08D04A
:10222C000E4B5B6823F440427B689B680B4913435D
:10223C004B607B681B6803F01003002B08D0074B26
:10224C005B6823F480027B68DB68044913434B60B2
:10225C00002318461837BD4680BD00BF0010024051
:10226C00007000404004424280B582B000AF7860FC
:10227C007B68002B01D1012341E07B6893F83D3052
:10228C00DBB2002B06D17B68002283F83C207868F7
:10229C00FEF7C0FA7B68022283F83D207B681A683F
:1022AC007B6804331946104600F0C6FC7B6801229B
:1022BC0083F846207B68012283F83E207B6801224C
:1022CC0083F83F207B68012283F840207B68012241
:1022DC0083F841207B68012283F842207B6801222D
:1022EC0083F843207B68012283F844207B68012219
:1022FC0083F845207B68012283F83D200023184693
:10230C000837BD4680BD80B582B000AF78607B6871
:10231C00002B01D1012341E07B6893F83D30DBB207
:10232C00002B06D17B68002283F83C20786800F0F3
:10233C0039F87B68022283F83D207B681A687B6839
:10234C0004331946104600F077FC7B68012283F8B1
:10235C0046207B68012283F83E207B68012283F8AB
:10236C003F207B68012283F840207B68012283F8A0
:10237C0041207B68012283F842207B68012283F88C
:10238C0043207B68012283F844207B68012283F878
:10239C0045207B68012283F83D200023184608372E
:1023AC00BD4680BD80B483B000AF786000BF0C37F1
:1023BC00BD4680BC7047000080B584B000AF78602B
:1023CC0039600023FB733B68002B09D17B6893F8C1
:1023DC003E30DBB2012B14BF01230023DBB222E021
:1023EC003B68042B09D17B6893F83F30DBB2012B9F
:1023FC0014BF01230023DBB215E03B68082B09D185
:10240C007B6893F84030DBB2012B14BF012300230F
:10241C00DBB208E07B6893F84130DBB2012B14BFD0
:10242C0001230023DBB2002B01D00123A9E03B6880
:10243C00002B04D17B68022283F83E2013E03B681A
:10244C00042B04D17B68022283F83F200BE03B680D
:10245C00082B04D17B68022283F8402003E07B68C0
:10246C00022283F841203B680C2B41D801A252F880
:10247C0023F000BFB5240008FD240008FD2400084B
:10248C00FD240008C7240008FD240008FD240008D2
:10249C00FD240008D9240008FD240008FD240008B0
:1024AC00FD240008EB2400087B681B68DA687B6855
:1024BC001B6842F00202DA601DE07B681B68DA6878
:1024CC007B681B6842F00402DA6014E07B681B68CE
:1024DC00DA687B681B6842F00802DA600BE07B6804
:1024EC001B68DA687B681B6842F01002DA6002E055
:1024FC000123FB7300BFFB7B002B41D17B681B6866
:10250C0001223968184600F023FE7B681B681F4ABD
:10251C00934207D17B681B685A6C7B681B6842F43A
:10252C0000425A647B681B68184A93420ED07B6841
:10253C001B68B3F1804F09D07B681B68144A934227
:10254C0004D07B681B68134A934211D17B681B68CB
:10255C009B6803F00703BB60BB68062B10D07B683D
:10256C001B681A687B681B6842F001021A6007E05E
:10257C007B681B681A687B681B6842F001021A6052
:10258C00FB7B18461037BD4680BD00BF002C0140B8
:10259C00000400400008004080B584B000AF7860B3
:1025AC0039600023FB733B680C2B41D801A252F815
:1025BC0023F000BFF52500083D2600083D26000845
:1025CC003D260008072600083D2600083D26000889
:1025DC003D260008192600083D2600083D26000867
:1025EC003D2600082B2600087B681B68DA687B6890
:1025FC001B6822F00202DA601DE07B681B68DA6857
:10260C007B681B6822F00402DA6014E07B681B68AC
:10261C00DA687B681B6822F00802DA600BE07B68E2
:10262C001B68DA687B681B6822F01002DA6002E033
:10263C000123FB7300BFFB7B002B57D17B681B680E
:10264C0000223968184600F083FD7B681B682A4A13
:10265C00934217D17B681B681A6A41F2111313401D
:10266C00002B0FD17B681B681A6A40F2444313405D
:10267C00002B07D17B681B685A6C7B681B6822F4A3
:10268C0000425A647B681B681A6A41F211131340AA
:10269C00002B0FD17B681B681A6A40F2444313402D
:1026AC00002B07D17B681B681A687B681B6822F0BB
:1026BC0001021A603B68002B04D17B68012283F86D
:1026CC003E2013E03B68042B04D17B68012283F885
:1026DC003F200BE03B68082B04D17B68012283F878
:1026EC00402003E07B68012283F84120FB7B1846E5
:1026FC001037BD4680BD00BF002C014080B584B0B2
:10270C0000AF78607B681B68DB68FB607B681B68CC
:10271C001B69BB60BB6803F00203002B20D0FB6875
:10272C0003F00203002B1BD07B681B686FF00202C6
:10273C001A617B6801221A777B681B689B6903F01E
:10274C000303002B03D0786800F063FA05E0786887
:10275C0000F056FA7868FDF783FF7B6800221A7741
:10276C00BB6803F00403002B20D0FB6803F00403C8
:10277C00002B1BD07B681B686FF004021A617B680E
:10278C0002221A777B681B689B6903F44073002B49
:10279C0003D0786800F03DFA05E0786800F030FA74
:1027AC007868FDF75DFF7B6800221A77BB6803F041
:1027BC000803002B20D0FB6803F00803002B1BD070
:1027CC007B681B686FF008021A617B6804221A7719
:1027DC007B681B68DB6903F00303002B03D078686C
:1027EC0000F017FA05E0786800F00AFA7868FDF74F
:1027FC0037FF7B6800221A77BB6803F01003002BAD
:10280C0020D0FB6803F01003002B1BD07B681B68E7
:10281C006FF010021A617B6808221A777B681B68BC
:10282C00DB6903F44073002B03D0786800F0F1F9F6
:10283C0005E0786800F0E4F97868FDF711FF7B6833
:10284C0000221A77BB6803F00103002B0CD0FB6845
:10285C0003F00103002B07D07B681B686FF00102AB
:10286C001A61786800F0C3F9BB6803F08003002B91
:10287C000CD0FB6803F08003002B07D07B681B682F
:10288C006FF080021A61786800F03EFDBB6803F0BF
:10289C004003002B0CD0FB6803F04003002B07D047
:1028AC007B681B686FF040021A61786800F0BAF917
:1028BC00BB6803F02003002B0CD0FB6803F0200353
:1028CC00002B07D07B681B686FF020021A617868B8
:1028DC0000F011FD00BF1037BD4680BD80B586B03D
:1028EC0000AFF860B9607A600023FB75FB6893F861
:1028FC003C30012B01D10223AEE0FB68012283F8AE
:10290C003C207B680C2B00F29F8001A252F823F034
:10291C0051290008552A0008552A0008552A000894
:10292C0091290008552A0008552A0008552A000844
:10293C00D3290008552A0008552A0008552A0008F2
:10294C00132A0008FB681B68B968184600F0E2F906
:10295C00FB681B689A69FB681B6842F008029A6165
:10296C00FB681B689A69FB681B6822F004029A6179
:10297C00FB681B689969BB681A69FB681B680A438A
:10298C009A6164E0FB681B68B968184600F028FA85
:10299C00FB681B689A69FB681B6842F400629A61C9
:1029AC00FB681B689A69FB681B6822F480629A6159
:1029BC00FB681B689969BB681B691A02FB681B687A
:1029CC000A439A6143E0FB681B68B968184600F03B
:1029DC0071FAFB681B68DA69FB681B6842F0080235
:1029EC00DA61FB681B68DA69FB681B6822F0040279
:1029FC00DA61FB681B68D969BB681A69FB681B68DC
:102A0C000A43DA6123E0FB681B68B968184600F0DA
:102A1C00BBFAFB681B68DA69FB681B6842F400624E
:102A2C00DA61FB681B68DA69FB681B6822F4806258
:102A3C00DA61FB681B68D969BB681B691A02FB6801
:102A4C001B680A43DA6102E00123FB7500BFFB68D7
:102A5C00002283F83C20FB7D18461837BD4680BD0C
:102A6C0080B584B000AF786039600023FB737B685D
:102A7C0093F83C30012B01D10223B4E07B68012296
:102A8C0083F83C207B68022283F83D207B681B681E
:102A9C009B68BB60BB6823F07703BB60BB6823F407
:102AAC007F43BB607B681B68BA689A603B681B6895
:102ABC00B3F5005F3ED0B3F5005F00F28780B3F54D
:102ACC00805F00F08680B3F5805F7FD8702B1AD0C2
:102ADC00702B7BD8602B50D0602B77D8502B3CD0F0
:102AEC00502B73D8402B58D0402B6FD8302B64D040
:102AFC00302B6BD8202B60D0202B67D8002B5CD0D0
:102B0C00102B5AD062E07B6818683B6899683B6868
:102B1C005A683B68DB6800F0FCFA7B681B689B68B2
:102B2C00BB60BB6843F07703BB607B681B68BA680B
:102B3C009A604FE07B6818683B6899683B685A68F4
:102B4C003B68DB6800F0E5FA7B681B689A687B6879
:102B5C001B6842F480429A603CE07B6818683B68D2
:102B6C0059683B68DB681A4600F05CFA7B681B68A6
:102B7C005021184600F0B3FA2CE07B6818683B68CB
:102B8C0059683B68DB681A4600F07AFA7B681B6868
:102B9C006021184600F0A3FA1CE07B6818683B68BB
:102BAC0059683B68DB681A4600F03CFA7B681B6886
:102BBC004021184600F093FA0CE07B681A683B68D9
:102BCC001B681946104600F08AFA03E00123FB73D8
:102BDC0000E000BF7B68012283F83D207B68002267
:102BEC0083F83C20FB7B18461037BD4680BD80B473
:102BFC0083B000AF786000BF0C37BD4680BC704717
:102C0C0080B483B000AF786000BF0C37BD4680BC89
:102C1C00704780B483B000AF786000BF0C37BD46FE
:102C2C0080BC704780B483B000AF786000BF0C37B5
:102C3C00BD4680BC7047000080B485B000AF7860A2
:102C4C0039607B681B68FB607B682F4A93420BD012
:102C5C007B68B3F1804F07D07B682C4A934203D03A
:102C6C007B682B4A934208D1FB6823F07003FB600E
:102C7C003B685B68FA681343FB607B68224A9342AB
:102C8C000BD07B68B3F1804F07D07B681F4A93420F
:102C9C0003D07B681E4A934208D1FB6823F440732F
:102CAC00FB603B68DB68FA681343FB60FB6823F04E
:102CBC0080023B685B691343FB607B68FA681A60AF
:102CCC003B689A687B68DA623B681A687B689A6230
:102CDC007B680D4A934203D13B681A697B681A637F
:102CEC007B6801225A617B681B6903F00103002B8E
:102CFC0005D07B681B6923F001027B681A6100BF59
:102D0C001437BD4680BC7047002C014000040040C5
:102D1C000008004080B487B000AF786039607B68F1
:102D2C001B6A7B617B681B6A23F001027B681A6259
:102D3C007B685B683B617B689B69FB60FB6823F08D
:102D4C007003FB60FB6823F00303FB603B681B68AC
:102D5C00FA681343FB607B6923F002037B613B68D9
:102D6C009B687A6913437B617B681C4A93420CD144
:102D7C007B6923F008037B613B68DB687A6913434A
:102D8C007B617B6923F004037B617B68134A93426C
:102D9C0011D13B6923F480733B613B6923F40073CD
:102DAC003B613B685B693A6913433B613B689B69D8
:102DBC003A6913433B617B683A695A607B68FA68ED
:102DCC009A613B685A687B685A637B687A691A62B5
:102DDC0000BF1C37BD4680BC704700BF002C0140B3
:102DEC0080B487B000AF786039607B681B6A7B6108
:102DFC007B681B6A23F010027B681A627B685B6835
:102E0C003B617B689B69FB60FB6823F4E043FB60E0
:102E1C00FB6823F44073FB603B681B681B02FA6879
:102E2C001343FB607B6923F020037B613B689B6849
:102E3C001B017A6913437B617B681D4A93420DD158
:102E4C007B6923F080037B613B68DB681B017A693B
:102E5C0013437B617B6923F040037B617B68144ADD
:102E6C00934213D13B6923F480633B613B6923F4A8
:102E7C0000633B613B685B699B003A6913433B61B0
:102E8C003B689B699B003A6913433B617B683A69D9
:102E9C005A607B68FA689A613B685A687B689A63E7
:102EAC007B687A691A6200BF1C37BD4680BC7047CC
:102EBC00002C014080B487B000AF786039607B682B
:102ECC001B6A7B617B681B6A23F480727B681A62C5
:102EDC007B685B683B617B68DB69FB60FB6823F0AC
:102EEC007003FB60FB6823F00303FB603B681B680B
:102EFC00FA681343FB607B6923F400737B613B68C6
:102F0C009B681B027A6913437B617B681D4A934261
:102F1C000DD17B6923F400637B613B68DB681B028A
:102F2C007A6913437B617B6923F480637B617B68E3
:102F3C00144A934213D13B6923F480533B613B69A0
:102F4C0023F400533B613B685B691B013A691343F3
:102F5C003B613B689B691B013A6913433B617B688E
:102F6C003A695A607B68FA68DA613B685A687B6830
:102F7C00DA637B687A691A6200BF1C37BD4680BC75
:102F8C00704700BF002C014080B487B000AF786060
:102F9C0039607B681B6A3B617B681B6A23F4805237
:102FAC007B681A627B685B687B617B68DB69FB60B2
:102FBC00FB6823F4E043FB60FB6823F44073FB6085
:102FCC003B681B681B02FA681343FB603B6923F4E4
:102FDC0000533B613B689B681B033A6913433B619D
:102FEC007B680F4A934209D17B6923F480437B6150
:102FFC003B685B699B017A6913437B617B687A69E7
:10300C005A607B68FA68DA613B685A687B681A64B4
:10301C007B683A691A6200BF1C37BD4680BC70479A
:10302C00002C014080B487B000AFF860B9607A60C2
:10303C00FB681B6A7B61FB681B6A23F00102FB685F
:10304C001A62FB689B693B613B6923F0F0033B61AF
:10305C007B681B013A6913433B617B6923F00A03CC
:10306C007B617A69BB6813437B61FB683A699A613F
:10307C00FB687A691A6200BF1C37BD4680BC70477A
:10308C0080B487B000AFF860B9607A60FB681B6AE7
:10309C007B61FB681B6A23F01002FB681A62FB68F9
:1030AC009B693B613B6923F470433B617B681B0369
:1030BC003A6913433B617B6923F0A0037B61BB68D6
:1030CC001B017A6913437B61FB683A699A61FB685F
:1030DC007A691A6200BF1C37BD4680BC704780B449
:1030EC0085B000AF786039607B689B68FB60FB68DB
:1030FC0023F07003FB603A68FB68134343F007034B
:10310C00FB607B68FA689A6000BF1437BD4680BCD0
:10311C00704780B487B000AFF860B9607A603B60EC
:10312C00FB689B687B617B6923F47F437B613B6815
:10313C001A027B681A43BB6813437A6913437B6199
:10314C00FB687A699A6000BF1C37BD4680BC70472B
:10315C0080B487B000AFF860B9607A60BB6803F0E8
:10316C001F03012202FA03F37B61FB681A6A7B6975
:10317C00DB431A40FB681A62FB681A6ABB6803F0EF
:10318C001F03796801FA03F31A43FB681A6200BF44
:10319C001C37BD4680BC704780B485B000AF7860EA
:1031AC0039607B6893F83C30012B01D1022346E057
:1031BC007B68012283F83C207B68022283F83D2047
:1031CC007B681B685B68FB607B681B689B68BB60EB
:1031DC00FB6823F07003FB603B681B68FA681343C1
:1031EC00FB607B681B68FA685A607B681B68164A30
:1031FC0093420ED07B681B68B3F1804F09D07B687B
:10320C001B68124A934204D07B681B68104A934295
:10321C000CD1BB6823F08003BB603B685B68BA6869
:10322C001343BB607B681B68BA689A607B68012299
:10323C0083F83D207B68002283F83C20002318464D
:10324C001437BD4680BC7047002C01400004004080
:10325C000008004080B485B000AF7860396000236E
:10326C00FB607B6893F83C30012B01D102233DE0DD
:10327C007B68012283F83C20FB6823F0FF023B684B
:10328C00DB681343FB60FB6823F440723B689B686C
:10329C001343FB60FB6823F480623B685B68134359
:1032AC00FB60FB6823F400623B681B681343FB6004
:1032BC00FB6823F480523B681B691343FB60FB687B
:1032CC0023F400523B685B691343FB60FB6823F4F7
:1032DC0080423B68DB691343FB607B681B68FA68C0
:1032EC005A647B68002283F83C200023184614376C
:1032FC00BD4680BC704780B483B000AF786000BF1F
:10330C000C37BD4680BC704780B483B000AF78608A
:10331C0000BF0C37BD4680BC704780B582B000AF93
:10332C0078607B68002B01D1012342E07B6893F825
:10333C004130DBB2002B06D17B68002283F84020A1
:10334C007868FDF7C9FA7B68242283F841207B68F2
:10335C001B68DA687B681B6822F40052DA607868B4
:10336C0000F072F97B681B681A697B681B6822F491
:10337C0090421A617B681B685A697B681B6822F053
:10338C002A025A617B681B68DA687B681B6842F406
:10339C000052DA607B6800225A647B68202283F832
:1033AC0041207B68202283F842207B6800225A63EC
:1033BC00002318460837BD4680BD80B58AB002AFE1
:1033CC00F860B9603B601346FB8000237B61FB68AF
:1033DC0093F84130DBB2202B75D1BB68002B02D0A7
:1033EC00FB88002B01D101236EE0FB6800225A649C
:1033FC00FB68212283F84120FDF7BEFB7861FB6856
:10340C00FA889A84FB68FA88DA84FB689B68B3F5BF
:10341C00805F08D1FB681B69002B04D10023FB6182
:10342C00BB68BB6103E0BB68FB610023BB612EE0A2
:10343C003B6800937B6900228021F86800F048F813
:10344C000346002B05D0FB68202283F84120032380
:10345C003AE0FB69002B0BD1BB691B881A46FB6851
:10346C001B68C2F308025A60BB690233BB6107E0F8
:10347C00FB691A78FB681B685A60FB690133FB61B6
:10348C00FB68DB8C9BB2013B9AB2FB68DA84FB686D
:10349C00DB8C9BB2002BCBD13B6800937B69002269
:1034AC004021F86800F014F80346002B05D0FB68A7
:1034BC00202283F84120032306E0FB68202283F8B6
:1034CC004120002300E0022318462037BD4680BD72
:1034DC0080B586B000AFF860B9603B601346FB71F5
:1034EC003BE03B6AB3F1FF3F37D0FDF745FB0246AB
:1034FC003B68D31A3A6A9A4202D33B6A002B01D139
:10350C0003233AE0FB681B68DB6803F00403002B21
:10351C0023D0BB68802B20D0BB68402B1DD0FB6810
:10352C001B681B6803F00803082B16D100237B6172
:10353C00FB681B681B687B61FB681B685B687B61B5
:10354C007B69F86800F01DF8FB6808225A64FB6878
:10355C00002283F8402001230FE0FB681B681A68E7
:10356C00BB681340BA689A420CBF01230023DBB23C
:10357C001A46FB799A42B4D0002318461837BD4638
:10358C0080BD80B495B000AF78607B681B680C334D
:10359C007B637B6B53E8003F3B633B6B23F4907383
:1035AC00FB647B681B680C33FA6C3A64FB63F96B45
:1035BC003A6C41E80023BB63BB6B002BE5D17B6805
:1035CC001B6814333B623B6A53E8003FFB61FB69A9
:1035DC0023F00103BB647B681B681433BA6CFA627A
:1035EC00BB62B96AFA6A41E800237B627B6A002BF2
:1035FC00E5D17B681B6B012B19D17B681B680C33E5
:10360C00FB60FB6853E8003FBB60BB6823F0100312
:10361C007B647B681B680C337A6CBA617B6179695B
:10362C00BA6941E800233B613B69002BE5D17B681B
:10363C00202283F842207B6800221A6300BF543793
:10364C00BD4680BC7047000080B584B000AF786088
:10365C007B681B681B6923F440517B68DA687B68C4
:10366C001B680A431A617B689A687B681B691A435A
:10367C007B685B691343BB607B681B68DB6823F466
:10368C00B05323F00C037A681268B9680B43D3600B
:10369C007B681B685B6923F440717B689A697B6863
:1036AC001B680A435A617B681B682C4A934203D1FE
:1036BC00FEF7F2FCF86002E0FEF7DAFCF860FA685C
:1036CC0013469B0013449A001A447B685B689B006A
:1036DC00B2FBF3F3224AA2FB03235B091901FA683C
:1036EC0013469B0013449A001A447B685B689B004A
:1036FC00B2FBF3F21A4BA3FB02035B09642000FB41
:10370C0003F3D31A1B013233154AA2FB03235B09C3
:10371C0003F0F0031944FA6813469B0013449A0013
:10372C001A447B685B689B00B2FBF3F20C4BA3FB67
:10373C0002035B09642000FB03F3D31A1B01323331
:10374C00074AA2FB03235B0903F00F027B681B688B
:10375C000A449A6000BF1037BD4680BD0038014056
:10376C001F85EB510CB430B5184B0C1E1D689DB069
:10377C0008DA8B234FF0FF302B601DB0BDE83040D2
:10378C0002B070474FF40273ADF814304FF00003E1
:10379C001B930CBF234604F1FF33049307934FF69E
:1037AC00FF7302900690ADF81630284621AB209A94
:1037BC0002A9019300F092F9431CBCBF8B232B6030
:1037CC00002CDAD00022029B1A70D6E70C000020E5
:1037DC0003460244934200D1704703F8011BF9E7FA
:1037EC00014B1868704700BF0C00002070B5002614
:1037FC000C4D0D4C641BA410A64209D100F076FCB4
:10380C0000260A4D0A4C641BA410A64205D170BDBB
:10381C0055F8043B98470136EEE755F8043B9847BA
:10382C000136F2E708420008084200080842000886
:10383C000C4200087047704738B50546002940D047
:10384C0051F8043C0C1F002BB8BFE41800F0DEF854
:10385C001C4A136833B9636014602846BDE83840CD
:10386C0000F0DAB8A34208D9206821188B4201BFB6
:10387C0019685B6809182160EDE71A465B680BB1A3
:10388C00A342FAD911685018A0420BD12068014408
:10389C00501883421160E0D118685B6808441060CE
:1038AC005360DAE702D90C232B60D6E72068211885
:1038BC008B4201BF19685B68091821606360546012
:1038CC00CBE738BD9402002070B50F4E0C46316822
:1038DC00054611B900F0A8FB30602146284600F0DF
:1038EC00A3FB431C03D14FF0FF34204670BDC41C16
:1038FC0024F00304A042F8D0211A284600F094FBCF
:10390C000130F2D1EFE700BF900200202DE9F8431F
:10391C00CD1C25F0030508350C2D38BF0C25002DCA
:10392C00064601DBA94204D90C2333600020BDE814
:10393C00F883DFF8D48000F069F8D8F800301C4622
:10394C0044BB29463046FFF7BFFF431C044658D101
:10395C00D8F800402746002F43D1002C4BD02368C9
:10396C003946304604EB030900F05EFB814542D139
:10397C00216830466D1A2946FFF7A6FF01303AD070
:10398C0023682B442360D8F800305A6862BBC8F80F
:10399C0000700FE02268521B20D40B2A17D9611932
:1039AC00A342256018BF5960636808BFC8F80010AF
:1039BC0062514B60304600F02FF804F10B00231DD0
:1039CC0020F00700C21A1CBF1B1AA350AFE7626895
:1039DC00A3420CBFC8F800205A60EBE7234664688A
:1039EC00AEE73C467F68B6E71A465B68A342FBD15C
:1039FC0000235360DEE70C233046336000F00CF8F4
:103A0C0094E70560D6E700BF940200200148FFF759
:103A1C0011BF00BF8C0200200148FFF70CBF00BF94
:103A2C008C0200202DE9F0471F468E688246BE426C
:103A3C000C4690460B682DD8B1F90C2012F4906FFF
:103A4C0026D06569096905EB4505A3EB010905EB72
:103A5C00D5757B1C4B446D109D4238BF1D465305DC
:103A6C0027D52946FFF752FF064660B34A4621691F
:103A7C0000F0F8FAA38923F4906343F08003A38148
:103A8C0026614E4426603E466561A5EB0905A5609E
:103A9C00BE4200D93E4632464146206800F0AAFAA2
:103AAC000020A3689B1BA360236833442360BDE8FC
:103ABC00F0872A4600F0E4FA06460028E0D150468A
:103ACC002169FFF7B9FE0C23CAF80030A3894FF027
:103ADC00FF3043F04003A381E9E700002DE9F04FEC
:103AEC0098468B8907461B060D4614469DB010D58B
:103AFC000B6973B94021FFF709FF2860286130B9C1
:103B0C000C233B604FF0FF301DB0BDE8F08F40231D
:103B1C006B610023099320238DF8293030234FF05B
:103B2C000109CDF80C80DFF898818DF82A302346F6
:103B3C009A4613F8012B0AB1252AF9D1BAEB040BDA
:103B4C000BD05B46224629463846FFF76BFF013007
:103B5C0000F0A780099A5A4409929AF80030002B79
:103B6C0000F09F8000234FF0FF32CDE905230AF1CE
:103B7C00010A049307938DF853301A935446052287
:103B8C0014F8011B4E4800F05FFA049AD8B9D0061D
:103B9C0044BF20238DF85330110744BF2B238DF8DD
:103BAC0053309AF800302A2B15D0544600204FF091
:103BBC000A0C079A214611F8013B303B092B4BD9D3
:103BCC00B0B1079214E0A0EB080309FA03F3134316
:103BDC00A2460493D2E7039B191D1B680391002B8B
:103BEC00BBBF5B4242F0020207930793B8BF04923B
:103BFC0023782E2B0AD163782A2B32D1039B0234E3
:103C0C001A1D1B68039243EAE3730593DFF8B4A013
:103C1C0003225046217800F017FA38B14022049B59
:103C2C00A0EB0A00824013430134049314F8011BE7
:103C3C00062225488DF8281000F006FA002836D008
:103C4C00224B1BBB039B073323F00703083303935F
:103C5C00099B334409936AE70C4601200CFB0232A2
:103C6C00A8E700234FF00A0C1946013405932046AF
:103C7C0010F8012B303A092A03D9002BC6D0059134
:103C8C00C4E7044601230CFB0121F0E703AB0093CE
:103C9C002A4638460E4B04A9AFF30080421C064658
:103CAC00D6D1AB895B063FF52DAF09982CE703AB5A
:103CBC0000932A463846064B04A900F07DF8EDE740
:103CCC00CA410008D0410008D4410008000000009F
:103CDC00313A00082DE9F047164698468A680B6978
:103CEC0007469342B8BF1346336091F843200C4605
:103CFC00DDF820900AB1013333602368990642BF86
:103D0C00336802333360256815F0060506D104F1DB
:103D1C00190AE36832689B1AAB422BDC94F84330E7
:103D2C002268003B18BF0123920630D44146384626
:103D3C0004F14302C847013023D02368226903F001
:103D4C000603042B14BF002533684FF0000608BF90
:103D5C00E56804F11A0408BFED1A54F8123C08BFC8
:103D6C0025EAE5759342C4BF9B1AED18B5421AD1EA
:103D7C00002008E00123524641463846C84701302E
:103D8C0003D14FF0FF30BDE8F0870135C1E730209B
:103D9C00E11881F843005A1C94F845102244023370
:103DAC0082F84310C2E70123224641463846C847F1
:103DBC000130E6D00136D9E72DE9FF470F7E914659
:103DCC00782F80460C469A460C9E01F1430207D888
:103DDC00622F0AD8002F00F0D180582F00F0B88045
:103DEC0004F1420684F842703AE0A7F16303152B04
:103DFC00F6D801A151F823F05D3E0008713E000891
:103E0C00ED3D0008ED3D0008ED3D0008ED3D0008DE
:103E1C00713E0008ED3D0008ED3D0008ED3D000849
:103E2C00ED3D00086F3F00089B3E0008293F00084D
:103E3C00ED3D0008ED3D0008913F0008ED3D000808
:103E4C009B3E0008ED3D0008ED3D0008313F0008A9
:103E5C0033681A1D1B68326004F1420684F8423044
:103E6C0001239CE033682068191D3160060601D5DA
:103E7C001D6803E04506FBD5B3F90050002D03DAAD
:103E8C002D236D4284F843300A23584811E02168F1
:103E9C003368080653F8045B02D4490648BFADB238
:103EAC006F2F336014BF0A2308235048002184F875
:103EBC0043106668002EA66005DB21682E4321F0B6
:103ECC00040121604BD01646B5FBF3F103FB1157EF
:103EDC00C75D06F8017D2F46BB420D46F4D9082B71
:103EEC000BD12368DF0708D5236961689942DEBFCF
:103EFC00302306F8013C06F1FF36921B22614B463B
:103F0C0021464046CDF800A003AAFFF7E3FE01309E
:103F1C004AD14FF0FF3004B0BDE8F087236843F07E
:103F2C00200323607827324884F845702368316871
:103F3C001F0651F8045B02D45F0648BFADB2316076
:103F4C00D90744BF43F0200323601DB11023ADE714
:103F5C002648E9E7236823F020032360F6E716469A
:103F6C00BDE733682568181D616930602E061B6833
:103F7C0001D5196002E06806FBD5198000231646AE
:103F8C002361BCE7336800211A1D32601E68626829
:103F9C00304600F059F808B1801B606063682361FB
:103FAC00002384F84330AAE7324649464046236949
:103FBC00D0470130ADD023689B0713D4E068039B36
:103FCC009842B8BF1846A6E70123324649464046F8
:103FDC00D04701309DD00135E36803995B1AAB42A1
:103FEC00F2DCEBE7002504F11906F5E7DB410008EC
:103FFC00EC410008884210B501EB020402D984425E
:10400C00234607D8431EA14208D011F8012B03F810
:10401C00012FF8E7014602448A4200D110BD13F883
:10402C00014D02F8014DF7E738B50023054D044664
:10403C0008462B60FCF7E6FC431C02D12B6803B14D
:10404C00236038BD88020020034610B5C9B2024473
:10405C009342184601D1002003E0047801338C42CE
:10406C00F6D110BD0A44914200F1FF3300D17047E4
:10407C0010B511F8014B914203F8014FF9D110BD65
:10408C002DE9F041074614460D4621B91146BDE80D
:10409C00F041FFF73BBC2AB9FFF7CEFB254628467B
:1040AC00BDE8F08100F01AF88442064602D8B4EB61
:1040BC00500FF4D821463846FFF728FC804608B943
:1040CC004546ECE7B4422246294628BF3246FFF764
:1040DC00C9FF29463846FFF7AFFBF1E751F8043C1E
:1040EC00181F002BBCBF0B58C0187047F8B500BF89
:1040FC00F8BC08BC9E467047F8B500BFF8BC08BCBD
:04410C009E46704714
:104110006164635F76616C75653A20256C75200D6E
:104120000A0000006F6B0000737465705F6E656558
:10413000645F76616C75653A20256C75200D0A0008
:10414000436861792076616F20656C7365200A0091
:1041500062692064616F0000786F6179207469651D
:10416000700000004368617920686574207374658D
:10417000702063616E200A00737465705F637572EE
:10418000722076616C75653A20256C750D0A000009
:104190004368617920746F6920646179200A0000A6
:1041A00000000000000000000102030406070809E7
:1041B00000000000010203040203040506070809C9
:1041C0000A0B0C0D0E0F10100102232D302B2000B6
:1041D000686C4C00656667454647003031323334C1
:1041E0003536373839414243444546003031323361
:1041F0003435363738396162636465660000000023
:084200004CBFFF7F010000002C
:044208003101000878
:04420C000D01000898
:1042100000127A00100000000100000010000020D1
:104220000000000050010020B80100202002002002
:10423000000000000000000000000000000000007E
:10424000000000000000000000000000000000006E
:10425000000000000000000000000000000000005E
:0C42600000000000000000000000000052
:0400000508000A895C
:00000001FF
